:100000000C9434000C943E000C943E000C943E0082
:100010000C943E000C943E000C943E000C943E0068
:100020000C943E000C943E000C943E000C943E0058
:100030000C943E000C943E000C943E000C943E0048
:100040000C943E000C943E000C943E000C943E0038
:100050000C943E000C943E000C943E000C943E0028
:100060000C943E000C943E0011241FBECFEFD8E04C
:10007000DEBFCDBF0E9440000C944D000C940000E8
:1000800080E284B990E2E7E4F8E03197F1F700C04C
:0E009000000085B1892785B9F6CFF894FFCF1F
:10009E000E23102500504235000000000000000025
:1000AE000000000000000000000000000000000042
:1000BE0000000000000D04E80300000C406D795FA5
:1000CE0074726163655F66696C652E7663640000A9
:1000DE000000000000000000000000000000000012
:1000EE000000000000000000000000000000000002
:1000FE0000000000000000000000000000000002F0
:10010E000440420000014061746D6567613332380E
:10011E0000000000000000000000000000000000D1
:10012E0000000000000000000000000000000000C1
:10013E0000000000000000000000000000000000B1
:07014E0000000000000000AA
:00000001FF
